{
  "contractName": "FlowerSacrifice",
  "abi": [
    {
      "inputs": [
        {
          "internalType": "address",
          "name": "_flowerContractAddress",
          "type": "address"
        }
      ],
      "stateMutability": "nonpayable",
      "type": "constructor"
    },
    {
      "anonymous": false,
      "inputs": [
        {
          "indexed": true,
          "internalType": "address",
          "name": "from",
          "type": "address"
        },
        {
          "indexed": false,
          "internalType": "bytes",
          "name": "eventId",
          "type": "bytes"
        },
        {
          "indexed": false,
          "internalType": "uint256",
          "name": "flower1",
          "type": "uint256"
        },
        {
          "indexed": false,
          "internalType": "uint256",
          "name": "flower2",
          "type": "uint256"
        },
        {
          "indexed": false,
          "internalType": "uint256",
          "name": "flower3",
          "type": "uint256"
        },
        {
          "indexed": false,
          "internalType": "uint256",
          "name": "flower4",
          "type": "uint256"
        },
        {
          "indexed": false,
          "internalType": "uint256",
          "name": "flower5",
          "type": "uint256"
        }
      ],
      "name": "BurnedFive",
      "type": "event"
    },
    {
      "anonymous": false,
      "inputs": [
        {
          "indexed": true,
          "internalType": "address",
          "name": "from",
          "type": "address"
        },
        {
          "indexed": false,
          "internalType": "bytes",
          "name": "eventId",
          "type": "bytes"
        },
        {
          "indexed": false,
          "internalType": "uint256",
          "name": "flower1",
          "type": "uint256"
        },
        {
          "indexed": false,
          "internalType": "uint256",
          "name": "flower2",
          "type": "uint256"
        },
        {
          "indexed": false,
          "internalType": "uint256",
          "name": "flower3",
          "type": "uint256"
        },
        {
          "indexed": false,
          "internalType": "uint256",
          "name": "flower4",
          "type": "uint256"
        }
      ],
      "name": "BurnedFour",
      "type": "event"
    },
    {
      "anonymous": false,
      "inputs": [
        {
          "indexed": true,
          "internalType": "address",
          "name": "from",
          "type": "address"
        },
        {
          "indexed": false,
          "internalType": "bytes",
          "name": "eventId",
          "type": "bytes"
        },
        {
          "indexed": false,
          "internalType": "uint256",
          "name": "flower1",
          "type": "uint256"
        }
      ],
      "name": "BurnedOne",
      "type": "event"
    },
    {
      "anonymous": false,
      "inputs": [
        {
          "indexed": true,
          "internalType": "address",
          "name": "from",
          "type": "address"
        },
        {
          "indexed": false,
          "internalType": "bytes",
          "name": "eventId",
          "type": "bytes"
        },
        {
          "indexed": false,
          "internalType": "uint256",
          "name": "flower1",
          "type": "uint256"
        },
        {
          "indexed": false,
          "internalType": "uint256",
          "name": "flower2",
          "type": "uint256"
        },
        {
          "indexed": false,
          "internalType": "uint256",
          "name": "flower3",
          "type": "uint256"
        }
      ],
      "name": "BurnedThree",
      "type": "event"
    },
    {
      "anonymous": false,
      "inputs": [
        {
          "indexed": true,
          "internalType": "address",
          "name": "from",
          "type": "address"
        },
        {
          "indexed": false,
          "internalType": "bytes",
          "name": "eventId",
          "type": "bytes"
        },
        {
          "indexed": false,
          "internalType": "uint256",
          "name": "flower1",
          "type": "uint256"
        },
        {
          "indexed": false,
          "internalType": "uint256",
          "name": "flower2",
          "type": "uint256"
        }
      ],
      "name": "BurnedTwo",
      "type": "event"
    },
    {
      "inputs": [
        {
          "internalType": "bytes",
          "name": "eventId",
          "type": "bytes"
        },
        {
          "internalType": "uint256",
          "name": "flower1",
          "type": "uint256"
        }
      ],
      "name": "burnOne",
      "outputs": [],
      "stateMutability": "nonpayable",
      "type": "function"
    },
    {
      "inputs": [
        {
          "internalType": "bytes",
          "name": "eventId",
          "type": "bytes"
        },
        {
          "internalType": "uint256",
          "name": "flower1",
          "type": "uint256"
        },
        {
          "internalType": "uint256",
          "name": "flower2",
          "type": "uint256"
        }
      ],
      "name": "burnTwo",
      "outputs": [],
      "stateMutability": "nonpayable",
      "type": "function"
    },
    {
      "inputs": [
        {
          "internalType": "bytes",
          "name": "eventId",
          "type": "bytes"
        },
        {
          "internalType": "uint256",
          "name": "flower1",
          "type": "uint256"
        },
        {
          "internalType": "uint256",
          "name": "flower2",
          "type": "uint256"
        },
        {
          "internalType": "uint256",
          "name": "flower3",
          "type": "uint256"
        }
      ],
      "name": "burnThree",
      "outputs": [],
      "stateMutability": "nonpayable",
      "type": "function"
    },
    {
      "inputs": [
        {
          "internalType": "bytes",
          "name": "eventId",
          "type": "bytes"
        },
        {
          "internalType": "uint256",
          "name": "flower1",
          "type": "uint256"
        },
        {
          "internalType": "uint256",
          "name": "flower2",
          "type": "uint256"
        },
        {
          "internalType": "uint256",
          "name": "flower3",
          "type": "uint256"
        },
        {
          "internalType": "uint256",
          "name": "flower4",
          "type": "uint256"
        }
      ],
      "name": "burnFour",
      "outputs": [],
      "stateMutability": "nonpayable",
      "type": "function"
    },
    {
      "inputs": [
        {
          "internalType": "bytes",
          "name": "eventId",
          "type": "bytes"
        },
        {
          "internalType": "uint256",
          "name": "flower1",
          "type": "uint256"
        },
        {
          "internalType": "uint256",
          "name": "flower2",
          "type": "uint256"
        },
        {
          "internalType": "uint256",
          "name": "flower3",
          "type": "uint256"
        },
        {
          "internalType": "uint256",
          "name": "flower4",
          "type": "uint256"
        },
        {
          "internalType": "uint256",
          "name": "flower5",
          "type": "uint256"
        }
      ],
      "name": "burnFive",
      "outputs": [],
      "stateMutability": "nonpayable",
      "type": "function"
    }
  ],
  "bytecode": "0x608060405234801561001057600080fd5b506040516118e63803806118e683398101604081905261002f91610054565b600080546001600160a01b0319166001600160a01b0392909216919091179055610084565b60006020828403121561006657600080fd5b81516001600160a01b038116811461007d57600080fd5b9392505050565b611853806100936000396000f3fe608060405234801561001057600080fd5b50600436106100575760003560e01c80631f268e3a1461005c57806352f4074d146100715780637025cef31461008457806395f2b5a514610097578063cdd05b08146100aa575b600080fd5b61006f61006a36600461141a565b6100bd565b005b61006f61007f36600461146b565b610397565b61006f6100923660046114d6565b610962565b61006f6100a5366004611530565b610d31565b61006f6100b8366004611592565b6111fe565b6000546040516331a9108f60e11b8152600481018490526001600160a01b0390911690636352211e90602401602060405180830381865afa158015610106573d6000803e3d6000fd5b505050506040513d601f19601f8201168201806040525081019061012a91906115de565b6001600160a01b0316336001600160a01b0316146101635760405162461bcd60e51b815260040161015a9061160e565b60405180910390fd5b6000546040516331a9108f60e11b8152600481018390526001600160a01b0390911690636352211e90602401602060405180830381865afa1580156101ac573d6000803e3d6000fd5b505050506040513d601f19601f820116820180604052508101906101d091906115de565b6001600160a01b0316336001600160a01b0316146102005760405162461bcd60e51b815260040161015a9061160e565b60005460405163e985e9c560e01b81523360048201523060248201526001600160a01b039091169063e985e9c590604401602060405180830381865afa15801561024e573d6000803e3d6000fd5b505050506040513d601f19601f820116820180604052508101906102729190611677565b61028e5760405162461bcd60e51b815260040161015a90611699565b600054604051630852cd8d60e31b8152600481018490526001600160a01b03909116906342966c6890602401600060405180830381600087803b1580156102d457600080fd5b505af11580156102e8573d6000803e3d6000fd5b5050600054604051630852cd8d60e31b8152600481018590526001600160a01b0390911692506342966c689150602401600060405180830381600087803b15801561033257600080fd5b505af1158015610346573d6000803e3d6000fd5b50505050336001600160a01b03167f51272e9cc4d02867f95db1660673e31da0703a42394bf2d897bb83297595dd9385858585604051610389949392919061172a565b60405180910390a250505050565b6000546040516331a9108f60e11b8152600481018790526001600160a01b0390911690636352211e90602401602060405180830381865afa1580156103e0573d6000803e3d6000fd5b505050506040513d601f19601f8201168201806040525081019061040491906115de565b6001600160a01b0316336001600160a01b0316146104345760405162461bcd60e51b815260040161015a9061160e565b6000546040516331a9108f60e11b8152600481018690526001600160a01b0390911690636352211e90602401602060405180830381865afa15801561047d573d6000803e3d6000fd5b505050506040513d601f19601f820116820180604052508101906104a191906115de565b6001600160a01b0316336001600160a01b0316146104d15760405162461bcd60e51b815260040161015a9061160e565b6000546040516331a9108f60e11b8152600481018590526001600160a01b0390911690636352211e90602401602060405180830381865afa15801561051a573d6000803e3d6000fd5b505050506040513d601f19601f8201168201806040525081019061053e91906115de565b6001600160a01b0316336001600160a01b03161461056e5760405162461bcd60e51b815260040161015a9061160e565b6000546040516331a9108f60e11b8152600481018490526001600160a01b0390911690636352211e90602401602060405180830381865afa1580156105b7573d6000803e3d6000fd5b505050506040513d601f19601f820116820180604052508101906105db91906115de565b6001600160a01b0316336001600160a01b03161461060b5760405162461bcd60e51b815260040161015a9061160e565b6000546040516331a9108f60e11b8152600481018390526001600160a01b0390911690636352211e90602401602060405180830381865afa158015610654573d6000803e3d6000fd5b505050506040513d601f19601f8201168201806040525081019061067891906115de565b6001600160a01b0316336001600160a01b0316146106a85760405162461bcd60e51b815260040161015a9061160e565b60005460405163e985e9c560e01b81523360048201523060248201526001600160a01b039091169063e985e9c590604401602060405180830381865afa1580156106f6573d6000803e3d6000fd5b505050506040513d601f19601f8201168201806040525081019061071a9190611677565b6107365760405162461bcd60e51b815260040161015a90611699565b600054604051630852cd8d60e31b8152600481018790526001600160a01b03909116906342966c6890602401600060405180830381600087803b15801561077c57600080fd5b505af1158015610790573d6000803e3d6000fd5b5050600054604051630852cd8d60e31b8152600481018890526001600160a01b0390911692506342966c689150602401600060405180830381600087803b1580156107da57600080fd5b505af11580156107ee573d6000803e3d6000fd5b5050600054604051630852cd8d60e31b8152600481018790526001600160a01b0390911692506342966c689150602401600060405180830381600087803b15801561083857600080fd5b505af115801561084c573d6000803e3d6000fd5b5050600054604051630852cd8d60e31b8152600481018690526001600160a01b0390911692506342966c689150602401600060405180830381600087803b15801561089657600080fd5b505af11580156108aa573d6000803e3d6000fd5b5050600054604051630852cd8d60e31b8152600481018590526001600160a01b0390911692506342966c689150602401600060405180830381600087803b1580156108f457600080fd5b505af1158015610908573d6000803e3d6000fd5b50505050336001600160a01b03167fe2a39d4899ac55c1823e31efd804dbc555b9f2f3702b8ebe1cdf78dca21e80c2888888888888886040516109519796959493929190611751565b60405180910390a250505050505050565b6000546040516331a9108f60e11b8152600481018590526001600160a01b0390911690636352211e90602401602060405180830381865afa1580156109ab573d6000803e3d6000fd5b505050506040513d601f19601f820116820180604052508101906109cf91906115de565b6001600160a01b0316336001600160a01b0316146109ff5760405162461bcd60e51b815260040161015a9061160e565b6000546040516331a9108f60e11b8152600481018490526001600160a01b0390911690636352211e90602401602060405180830381865afa158015610a48573d6000803e3d6000fd5b505050506040513d601f19601f82011682018060405250810190610a6c91906115de565b6001600160a01b0316336001600160a01b031614610a9c5760405162461bcd60e51b815260040161015a9061160e565b6000546040516331a9108f60e11b8152600481018390526001600160a01b0390911690636352211e90602401602060405180830381865afa158015610ae5573d6000803e3d6000fd5b505050506040513d601f19601f82011682018060405250810190610b0991906115de565b6001600160a01b0316336001600160a01b031614610b395760405162461bcd60e51b815260040161015a9061160e565b60005460405163e985e9c560e01b81523360048201523060248201526001600160a01b039091169063e985e9c590604401602060405180830381865afa158015610b87573d6000803e3d6000fd5b505050506040513d601f19601f82011682018060405250810190610bab9190611677565b610bc75760405162461bcd60e51b815260040161015a90611699565b600054604051630852cd8d60e31b8152600481018590526001600160a01b03909116906342966c6890602401600060405180830381600087803b158015610c0d57600080fd5b505af1158015610c21573d6000803e3d6000fd5b5050600054604051630852cd8d60e31b8152600481018690526001600160a01b0390911692506342966c689150602401600060405180830381600087803b158015610c6b57600080fd5b505af1158015610c7f573d6000803e3d6000fd5b5050600054604051630852cd8d60e31b8152600481018590526001600160a01b0390911692506342966c689150602401600060405180830381600087803b158015610cc957600080fd5b505af1158015610cdd573d6000803e3d6000fd5b50505050336001600160a01b03167f0c47112be0f716eabc537ae73014ebad33e06b52fe8d6ba09a71a42c894b71388686868686604051610d2295949392919061178f565b60405180910390a25050505050565b6000546040516331a9108f60e11b8152600481018690526001600160a01b0390911690636352211e90602401602060405180830381865afa158015610d7a573d6000803e3d6000fd5b505050506040513d601f19601f82011682018060405250810190610d9e91906115de565b6001600160a01b0316336001600160a01b031614610dce5760405162461bcd60e51b815260040161015a9061160e565b6000546040516331a9108f60e11b8152600481018590526001600160a01b0390911690636352211e90602401602060405180830381865afa158015610e17573d6000803e3d6000fd5b505050506040513d601f19601f82011682018060405250810190610e3b91906115de565b6001600160a01b0316336001600160a01b031614610e6b5760405162461bcd60e51b815260040161015a9061160e565b6000546040516331a9108f60e11b8152600481018490526001600160a01b0390911690636352211e90602401602060405180830381865afa158015610eb4573d6000803e3d6000fd5b505050506040513d601f19601f82011682018060405250810190610ed891906115de565b6001600160a01b0316336001600160a01b031614610f085760405162461bcd60e51b815260040161015a9061160e565b6000546040516331a9108f60e11b8152600481018390526001600160a01b0390911690636352211e90602401602060405180830381865afa158015610f51573d6000803e3d6000fd5b505050506040513d601f19601f82011682018060405250810190610f7591906115de565b6001600160a01b0316336001600160a01b031614610fa55760405162461bcd60e51b815260040161015a9061160e565b60005460405163e985e9c560e01b81523360048201523060248201526001600160a01b039091169063e985e9c590604401602060405180830381865afa158015610ff3573d6000803e3d6000fd5b505050506040513d601f19601f820116820180604052508101906110179190611677565b6110335760405162461bcd60e51b815260040161015a90611699565b600054604051630852cd8d60e31b8152600481018690526001600160a01b03909116906342966c6890602401600060405180830381600087803b15801561107957600080fd5b505af115801561108d573d6000803e3d6000fd5b5050600054604051630852cd8d60e31b8152600481018790526001600160a01b0390911692506342966c689150602401600060405180830381600087803b1580156110d757600080fd5b505af11580156110eb573d6000803e3d6000fd5b5050600054604051630852cd8d60e31b8152600481018690526001600160a01b0390911692506342966c689150602401600060405180830381600087803b15801561113557600080fd5b505af1158015611149573d6000803e3d6000fd5b5050600054604051630852cd8d60e31b8152600481018590526001600160a01b0390911692506342966c689150602401600060405180830381600087803b15801561119357600080fd5b505af11580156111a7573d6000803e3d6000fd5b50505050336001600160a01b03167f9ff29f77ae811f0263d4c5b43ea8643c4f45f257e0200e3c15b39f770338722c8787878787876040516111ee969594939291906117c0565b60405180910390a2505050505050565b6000546040516331a9108f60e11b8152600481018390526001600160a01b0390911690636352211e90602401602060405180830381865afa158015611247573d6000803e3d6000fd5b505050506040513d601f19601f8201168201806040525081019061126b91906115de565b6001600160a01b0316336001600160a01b03161461129b5760405162461bcd60e51b815260040161015a9061160e565b60005460405163e985e9c560e01b81523360048201523060248201526001600160a01b039091169063e985e9c590604401602060405180830381865afa1580156112e9573d6000803e3d6000fd5b505050506040513d601f19601f8201168201806040525081019061130d9190611677565b6113295760405162461bcd60e51b815260040161015a90611699565b600054604051630852cd8d60e31b8152600481018390526001600160a01b03909116906342966c6890602401600060405180830381600087803b15801561136f57600080fd5b505af1158015611383573d6000803e3d6000fd5b50505050336001600160a01b03167f582707c44e2d31e5b4dddad78f4dc411af4fc15098a062aaac217017eac38cc18484846040516113c4939291906117f9565b60405180910390a2505050565b60008083601f8401126113e357600080fd5b50813567ffffffffffffffff8111156113fb57600080fd5b60208301915083602082850101111561141357600080fd5b9250929050565b6000806000806060858703121561143057600080fd5b843567ffffffffffffffff81111561144757600080fd5b611453878288016113d1565b90989097506020870135966040013595509350505050565b600080600080600080600060c0888a03121561148657600080fd5b873567ffffffffffffffff81111561149d57600080fd5b6114a98a828b016113d1565b909b909a5060208a01359960408101359950606081013598506080810135975060a0013595509350505050565b6000806000806000608086880312156114ee57600080fd5b853567ffffffffffffffff81111561150557600080fd5b611511888289016113d1565b9099909850602088013597604081013597506060013595509350505050565b60008060008060008060a0878903121561154957600080fd5b863567ffffffffffffffff81111561156057600080fd5b61156c89828a016113d1565b909a90995060208901359860408101359850606081013597506080013595509350505050565b6000806000604084860312156115a757600080fd5b833567ffffffffffffffff8111156115be57600080fd5b6115ca868287016113d1565b909790965060209590950135949350505050565b6000602082840312156115f057600080fd5b81516001600160a01b038116811461160757600080fd5b9392505050565b60208082526043908201527f466c6f7765725361637269666963653a20596f75206d757374206f776e20746860408201527f697320464c4f57455220696e206f7264657220746f207361637269666963652060608201526234ba1760e91b608082015260a00190565b60006020828403121561168957600080fd5b8151801515811461160757600080fd5b60208082526042908201527f466c6f7765725361637269666963653a20596f75206d75737420617070726f7660408201527f6520464c4f57455273206265666f7265207361637269666963696e6720746865606082015261369760f11b608082015260a00190565b81835281816020850137506000828201602090810191909152601f909101601f19169091010190565b60608152600061173e606083018688611701565b6020830194909452506040015292915050565b60c08152600061176560c08301898b611701565b60208301979097525060408101949094526060840192909252608083015260a09091015292915050565b6080815260006117a3608083018789611701565b602083019590955250604081019290925260609091015292915050565b60a0815260006117d460a08301888a611701565b9050856020830152846040830152836060830152826080830152979650505050505050565b60408152600061180d604083018587611701565b905082602083015294935050505056fea2646970667358221220601cc446aafed0af2ece61244971c546d50337a5272096c04e9aef40cdab9df364736f6c63430008110033",
  "immutableReferences": {},
  "source": "// SPDX-License-Identifier: MIT\npragma solidity ^0.8.0;\n\nimport \"@openzeppelin/contracts/token/ERC721/extensions/ERC721Burnable.sol\";\n\ncontract FlowerSacrifice {\n    event BurnedOne(address indexed from, bytes eventId, uint256 flower1);\n    event BurnedTwo(\n        address indexed from,\n        bytes eventId,\n        uint256 flower1,\n        uint256 flower2\n    );\n    event BurnedThree(\n        address indexed from,\n        bytes eventId,\n        uint256 flower1,\n        uint256 flower2,\n        uint256 flower3\n    );\n    event BurnedFour(\n        address indexed from,\n        bytes eventId,\n        uint256 flower1,\n        uint256 flower2,\n        uint256 flower3,\n        uint256 flower4\n    );\n    event BurnedFive(\n        address indexed from,\n        bytes eventId,\n        uint256 flower1,\n        uint256 flower2,\n        uint256 flower3,\n        uint256 flower4,\n        uint256 flower5\n    );\n    ERC721Burnable internal flowerContract;\n\n    constructor(address _flowerContractAddress) {\n        flowerContract = ERC721Burnable(_flowerContractAddress);\n    }\n\n    function burnOne(bytes calldata eventId, uint256 flower1) external {\n        // Validate sender ownership\n        require(\n            msg.sender == flowerContract.ownerOf(flower1),\n            \"FlowerSacrifice: You must own this FLOWER in order to sacrifice it.\"\n        );\n\n        // Make sure this contract has approval to transfer all the FLOWERs\n        require(\n            flowerContract.isApprovedForAll(msg.sender, address(this)),\n            \"FlowerSacrifice: You must approve FLOWERs before sacrificing them.\"\n        );\n\n        flowerContract.burn(flower1);\n\n        emit BurnedOne(msg.sender, eventId, flower1);\n    }\n\n    function burnTwo(\n        bytes calldata eventId,\n        uint256 flower1,\n        uint256 flower2\n    ) external {\n        // Validate sender ownership\n        require(\n            msg.sender == flowerContract.ownerOf(flower1),\n            \"FlowerSacrifice: You must own this FLOWER in order to sacrifice it.\"\n        );\n        require(\n            msg.sender == flowerContract.ownerOf(flower2),\n            \"FlowerSacrifice: You must own this FLOWER in order to sacrifice it.\"\n        );\n\n        // Make sure this contract has approval to transfer all the FLOWERs\n        require(\n            flowerContract.isApprovedForAll(msg.sender, address(this)),\n            \"FlowerSacrifice: You must approve FLOWERs before sacrificing them.\"\n        );\n\n        flowerContract.burn(flower1);\n        flowerContract.burn(flower2);\n\n        emit BurnedTwo(msg.sender, eventId, flower1, flower2);\n    }\n\n    function burnThree(\n        bytes calldata eventId,\n        uint256 flower1,\n        uint256 flower2,\n        uint256 flower3\n    ) external {\n        // Validate sender ownership\n        require(\n            msg.sender == flowerContract.ownerOf(flower1),\n            \"FlowerSacrifice: You must own this FLOWER in order to sacrifice it.\"\n        );\n        require(\n            msg.sender == flowerContract.ownerOf(flower2),\n            \"FlowerSacrifice: You must own this FLOWER in order to sacrifice it.\"\n        );\n        require(\n            msg.sender == flowerContract.ownerOf(flower3),\n            \"FlowerSacrifice: You must own this FLOWER in order to sacrifice it.\"\n        );\n\n        // Make sure this contract has approval to transfer all the FLOWERs\n        require(\n            flowerContract.isApprovedForAll(msg.sender, address(this)),\n            \"FlowerSacrifice: You must approve FLOWERs before sacrificing them.\"\n        );\n\n        flowerContract.burn(flower1);\n        flowerContract.burn(flower2);\n        flowerContract.burn(flower3);\n\n        emit BurnedThree(msg.sender, eventId, flower1, flower2, flower3);\n    }\n\n    function burnFour(\n        bytes calldata eventId,\n        uint256 flower1,\n        uint256 flower2,\n        uint256 flower3,\n        uint256 flower4\n    ) external {\n        // Validate sender ownership\n        require(\n            msg.sender == flowerContract.ownerOf(flower1),\n            \"FlowerSacrifice: You must own this FLOWER in order to sacrifice it.\"\n        );\n        require(\n            msg.sender == flowerContract.ownerOf(flower2),\n            \"FlowerSacrifice: You must own this FLOWER in order to sacrifice it.\"\n        );\n        require(\n            msg.sender == flowerContract.ownerOf(flower3),\n            \"FlowerSacrifice: You must own this FLOWER in order to sacrifice it.\"\n        );\n        require(\n            msg.sender == flowerContract.ownerOf(flower4),\n            \"FlowerSacrifice: You must own this FLOWER in order to sacrifice it.\"\n        );\n\n        // Make sure this contract has approval to transfer all the FLOWERs\n        require(\n            flowerContract.isApprovedForAll(msg.sender, address(this)),\n            \"FlowerSacrifice: You must approve FLOWERs before sacrificing them.\"\n        );\n\n        flowerContract.burn(flower1);\n        flowerContract.burn(flower2);\n        flowerContract.burn(flower3);\n        flowerContract.burn(flower4);\n\n        emit BurnedFour(\n            msg.sender,\n            eventId,\n            flower1,\n            flower2,\n            flower3,\n            flower4\n        );\n    }\n\n    function burnFive(\n        bytes calldata eventId,\n        uint256 flower1,\n        uint256 flower2,\n        uint256 flower3,\n        uint256 flower4,\n        uint256 flower5\n    ) external {\n        // Validate sender ownership\n        require(\n            msg.sender == flowerContract.ownerOf(flower1),\n            \"FlowerSacrifice: You must own this FLOWER in order to sacrifice it.\"\n        );\n        require(\n            msg.sender == flowerContract.ownerOf(flower2),\n            \"FlowerSacrifice: You must own this FLOWER in order to sacrifice it.\"\n        );\n        require(\n            msg.sender == flowerContract.ownerOf(flower3),\n            \"FlowerSacrifice: You must own this FLOWER in order to sacrifice it.\"\n        );\n        require(\n            msg.sender == flowerContract.ownerOf(flower4),\n            \"FlowerSacrifice: You must own this FLOWER in order to sacrifice it.\"\n        );\n        require(\n            msg.sender == flowerContract.ownerOf(flower5),\n            \"FlowerSacrifice: You must own this FLOWER in order to sacrifice it.\"\n        );\n\n        // Make sure this contract has approval to transfer all the FLOWERs\n        require(\n            flowerContract.isApprovedForAll(msg.sender, address(this)),\n            \"FlowerSacrifice: You must approve FLOWERs before sacrificing them.\"\n        );\n\n        flowerContract.burn(flower1);\n        flowerContract.burn(flower2);\n        flowerContract.burn(flower3);\n        flowerContract.burn(flower4);\n        flowerContract.burn(flower5);\n\n        emit BurnedFive(\n            msg.sender,\n            eventId,\n            flower1,\n            flower2,\n            flower3,\n            flower4,\n            flower5\n        );\n    }\n}\n",
  "sourcePath": "/Users/pash/Documents/Nugbase/flowerpatch-contracts/contracts/sacrifice/FlowerSacrifice.sol",
  "compiler": {
    "name": "solc",
    "version": "0.8.17+commit.8df45f5f.Emscripten.clang"
  },
  "schemaVersion": "3.4.11",
  "updatedAt": "2022-12-30T00:18:25.901Z",
  "networkType": "ethereum",
  "devdoc": {
    "kind": "dev",
    "methods": {},
    "version": 1
  },
  "userdoc": {
    "kind": "user",
    "methods": {},
    "version": 1
  }
}