{
  "contractName": "FlowerSacrifice",
  "abi": [
    {
      "inputs": [
        {
          "internalType": "address",
          "name": "_flowerContractAddress",
          "type": "address"
        }
      ],
      "stateMutability": "nonpayable",
      "type": "constructor"
    },
    {
      "anonymous": false,
      "inputs": [
        {
          "indexed": true,
          "internalType": "string",
          "name": "eventId",
          "type": "string"
        },
        {
          "indexed": true,
          "internalType": "address",
          "name": "from",
          "type": "address"
        },
        {
          "indexed": true,
          "internalType": "uint256[3]",
          "name": "flowers",
          "type": "uint256[3]"
        }
      ],
      "name": "Burnt",
      "type": "event"
    },
    {
      "inputs": [
        {
          "internalType": "string",
          "name": "eventId",
          "type": "string"
        },
        {
          "internalType": "uint256",
          "name": "flower1",
          "type": "uint256"
        },
        {
          "internalType": "uint256",
          "name": "flower2",
          "type": "uint256"
        },
        {
          "internalType": "uint256",
          "name": "flower3",
          "type": "uint256"
        }
      ],
      "name": "burn",
      "outputs": [],
      "stateMutability": "nonpayable",
      "type": "function"
    }
  ],
  "bytecode": "0x6080604052600180546001600160a01b03191661dead17905534801561002457600080fd5b5060405161077f38038061077f83398101604081905261004391610068565b600080546001600160a01b0319166001600160a01b0392909216919091179055610098565b60006020828403121561007a57600080fd5b81516001600160a01b038116811461009157600080fd5b9392505050565b6106d8806100a76000396000f3fe608060405234801561001057600080fd5b506004361061002b5760003560e01c80634a4d9a6414610030575b600080fd5b61004361003e3660046104bf565b610045565b005b6000546040516331a9108f60e11b8152600481018590526001600160a01b0390911690636352211e90602401602060405180830381865afa15801561008e573d6000803e3d6000fd5b505050506040513d601f19601f820116820180604052508101906100b29190610584565b6001600160a01b0316336001600160a01b0316146100eb5760405162461bcd60e51b81526004016100e2906105b4565b60405180910390fd5b6000546040516331a9108f60e11b8152600481018490526001600160a01b0390911690636352211e90602401602060405180830381865afa158015610134573d6000803e3d6000fd5b505050506040513d601f19601f820116820180604052508101906101589190610584565b6001600160a01b0316336001600160a01b0316146101885760405162461bcd60e51b81526004016100e2906105b4565b6000546040516331a9108f60e11b8152600481018390526001600160a01b0390911690636352211e90602401602060405180830381865afa1580156101d1573d6000803e3d6000fd5b505050506040513d601f19601f820116820180604052508101906101f59190610584565b6001600160a01b0316336001600160a01b0316146102255760405162461bcd60e51b81526004016100e2906105b4565b60005460405163e985e9c560e01b81523360048201523060248201526001600160a01b039091169063e985e9c590604401602060405180830381865afa158015610273573d6000803e3d6000fd5b505050506040513d601f19601f82011682018060405250810190610297919061061d565b6103145760405162461bcd60e51b815260206004820152604260248201527f466c6f7765725361637269666963653a20596f75206d75737420617070726f7660448201527f6520464c4f57455273206265666f7265207361637269666963696e6720746865606482015261369760f11b608482015260a4016100e2565b600054604051630852cd8d60e31b8152600481018590526001600160a01b03909116906342966c6890602401600060405180830381600087803b15801561035a57600080fd5b505af115801561036e573d6000803e3d6000fd5b5050600054604051630852cd8d60e31b8152600481018690526001600160a01b0390911692506342966c689150602401600060405180830381600087803b1580156103b857600080fd5b505af11580156103cc573d6000803e3d6000fd5b5050600054604051630852cd8d60e31b8152600481018590526001600160a01b0390911692506342966c689150602401600060405180830381600087803b15801561041657600080fd5b505af115801561042a573d6000803e3d6000fd5b50505050600060405180606001604052808581526020018481526020018381525090508060405161045b919061063f565b604051908190038120903390610472908890610673565b604051908190038120907f480199529c8af452b82116585f5c234d000295ccf1ba524bd8bd74386cc7aab290600090a45050505050565b634e487b7160e01b600052604160045260246000fd5b600080600080608085870312156104d557600080fd5b843567ffffffffffffffff808211156104ed57600080fd5b818701915087601f83011261050157600080fd5b813581811115610513576105136104a9565b604051601f8201601f19908116603f0116810190838211818310171561053b5761053b6104a9565b816040528281528a602084870101111561055457600080fd5b82602086016020830137600060209382018401529a91890135995050604088013597606001359650945050505050565b60006020828403121561059657600080fd5b81516001600160a01b03811681146105ad57600080fd5b9392505050565b60208082526043908201527f466c6f7765725361637269666963653a20596f75206d757374206f776e20746860408201527f697320464c4f57455220696e206f7264657220746f207361637269666963652060608201526234ba1760e91b608082015260a00190565b60006020828403121561062f57600080fd5b815180151581146105ad57600080fd5b60008183825b6003811015610664578151835260209283019290910190600101610645565b50505060608201905092915050565b6000825160005b81811015610694576020818601810151858301520161067a565b50600092019182525091905056fea2646970667358221220bac5e68e0df8d8d005510557abe3b8c5e9d7363294f15c22400443b961ba366d64736f6c63430008110033",
  "immutableReferences": {},
  "source": "// SPDX-License-Identifier: MIT\npragma solidity ^0.8.0;\n\nimport \"@openzeppelin/contracts/token/ERC721/extensions/ERC721Burnable.sol\";\n\ncontract FlowerSacrifice {\n    event Burnt(\n        string indexed eventId,\n        address indexed from,\n        uint256[3] indexed flowers\n    );\n    ERC721Burnable internal flowerContract;\n    address internal burnAddress = 0x000000000000000000000000000000000000dEaD;\n\n    constructor(address _flowerContractAddress) {\n        flowerContract = ERC721Burnable(_flowerContractAddress);\n    }\n\n    function burn(\n        string memory eventId,\n        uint256 flower1,\n        uint256 flower2,\n        uint256 flower3\n    ) external {\n        // Validate sender ownership\n        require(\n            msg.sender == flowerContract.ownerOf(flower1),\n            \"FlowerSacrifice: You must own this FLOWER in order to sacrifice it.\"\n        );\n        require(\n            msg.sender == flowerContract.ownerOf(flower2),\n            \"FlowerSacrifice: You must own this FLOWER in order to sacrifice it.\"\n        );\n        require(\n            msg.sender == flowerContract.ownerOf(flower3),\n            \"FlowerSacrifice: You must own this FLOWER in order to sacrifice it.\"\n        );\n\n        // Make sure this contract has approval to transfer all the FLOWERs\n        require(\n            flowerContract.isApprovedForAll(msg.sender, address(this)),\n            \"FlowerSacrifice: You must approve FLOWERs before sacrificing them.\"\n        );\n\n        flowerContract.burn(flower1);\n        flowerContract.burn(flower2);\n        flowerContract.burn(flower3);\n\n        uint256[3] memory flowers = [flower1, flower2, flower3];\n\n        emit Burnt(eventId, msg.sender, flowers);\n    }\n}\n",
  "sourcePath": "/Users/pash/Documents/Nugbase/flowerpatch-contracts/contracts/sacrifice/FlowerSacrifice.sol",
  "compiler": {
    "name": "solc",
    "version": "0.8.17+commit.8df45f5f.Emscripten.clang"
  },
  "schemaVersion": "3.4.11",
  "updatedAt": "2022-12-29T12:18:34.391Z",
  "networkType": "ethereum",
  "devdoc": {
    "kind": "dev",
    "methods": {},
    "version": 1
  },
  "userdoc": {
    "kind": "user",
    "methods": {},
    "version": 1
  }
}