{
  "contractName": "FlowerSacrifice",
  "abi": [
    {
      "inputs": [
        {
          "internalType": "address",
          "name": "_flowerContractAddress",
          "type": "address"
        }
      ],
      "stateMutability": "nonpayable",
      "type": "constructor"
    },
    {
      "anonymous": false,
      "inputs": [
        {
          "indexed": true,
          "internalType": "address",
          "name": "from",
          "type": "address"
        },
        {
          "indexed": true,
          "internalType": "uint256[3]",
          "name": "flowers",
          "type": "uint256[3]"
        }
      ],
      "name": "Burnt",
      "type": "event"
    },
    {
      "inputs": [
        {
          "internalType": "uint256",
          "name": "flower1",
          "type": "uint256"
        },
        {
          "internalType": "uint256",
          "name": "flower2",
          "type": "uint256"
        },
        {
          "internalType": "uint256",
          "name": "flower3",
          "type": "uint256"
        }
      ],
      "name": "burn",
      "outputs": [],
      "stateMutability": "nonpayable",
      "type": "function"
    }
  ],
  "bytecode": "0x6080604052600180546001600160a01b03191661dead17905534801561002457600080fd5b506040516106bb3803806106bb83398101604081905261004391610068565b600080546001600160a01b0319166001600160a01b0392909216919091179055610098565b60006020828403121561007a57600080fd5b81516001600160a01b038116811461009157600080fd5b9392505050565b610614806100a76000396000f3fe608060405234801561001057600080fd5b506004361061002b5760003560e01c806305a1002814610030575b600080fd5b61004361003e3660046104c3565b610045565b005b6000546040516331a9108f60e11b8152600481018590526001600160a01b0390911690636352211e90602401602060405180830381865afa15801561008e573d6000803e3d6000fd5b505050506040513d601f19601f820116820180604052508101906100b291906104ef565b6001600160a01b0316336001600160a01b0316146100eb5760405162461bcd60e51b81526004016100e29061051f565b60405180910390fd5b6000546040516331a9108f60e11b8152600481018490526001600160a01b0390911690636352211e90602401602060405180830381865afa158015610134573d6000803e3d6000fd5b505050506040513d601f19601f8201168201806040525081019061015891906104ef565b6001600160a01b0316336001600160a01b0316146101885760405162461bcd60e51b81526004016100e29061051f565b6000546040516331a9108f60e11b8152600481018390526001600160a01b0390911690636352211e90602401602060405180830381865afa1580156101d1573d6000803e3d6000fd5b505050506040513d601f19601f820116820180604052508101906101f591906104ef565b6001600160a01b0316336001600160a01b0316146102255760405162461bcd60e51b81526004016100e29061051f565b60005460405163e985e9c560e01b81523360048201523060248201526001600160a01b039091169063e985e9c590604401602060405180830381865afa158015610273573d6000803e3d6000fd5b505050506040513d601f19601f820116820180604052508101906102979190610588565b6103145760405162461bcd60e51b815260206004820152604260248201527f466c6f7765725361637269666963653a20596f75206d75737420617070726f7660448201527f6520464c4f57455273206265666f7265207361637269666963696e6720746865606482015261369760f11b608482015260a4016100e2565b6000546001546040516323b872dd60e01b81523360048201526001600160a01b039182166024820152604481018690529116906323b872dd90606401600060405180830381600087803b15801561036a57600080fd5b505af115801561037e573d6000803e3d6000fd5b50506000546001546040516323b872dd60e01b81523360048201526001600160a01b03918216602482015260448101879052911692506323b872dd9150606401600060405180830381600087803b1580156103d857600080fd5b505af11580156103ec573d6000803e3d6000fd5b50506000546001546040516323b872dd60e01b81523360048201526001600160a01b03918216602482015260448101869052911692506323b872dd9150606401600060405180830381600087803b15801561044657600080fd5b505af115801561045a573d6000803e3d6000fd5b50505050600060405180606001604052808581526020018481526020018381525090508060405161048b91906105aa565b6040519081900381209033907f3d0e30b36fe67e843eb68b6fad665d98d6bf5142a522634900ba50001863fd3090600090a350505050565b6000806000606084860312156104d857600080fd5b505081359360208301359350604090920135919050565b60006020828403121561050157600080fd5b81516001600160a01b038116811461051857600080fd5b9392505050565b60208082526043908201527f466c6f7765725361637269666963653a20596f75206d757374206f776e20746860408201527f697320464c4f57455220696e206f7264657220746f207361637269666963652060608201526234ba1760e91b608082015260a00190565b60006020828403121561059a57600080fd5b8151801515811461051857600080fd5b60008183825b60038110156105cf5781518352602092830192909101906001016105b0565b5050506060820190509291505056fea2646970667358221220bfd449b61a147e11d48660eab4d454975299020f88bdcdafafb606bdd3a7d45964736f6c63430008110033",
  "immutableReferences": {},
  "source": "// SPDX-License-Identifier: MIT\npragma solidity ^0.8.0;\n\nimport \"@openzeppelin/contracts/token/ERC721/IERC721.sol\";\n\ncontract FlowerSacrifice {\n    event Burnt(address indexed from, uint256[3] indexed flowers);\n    IERC721 internal flowerContract;\n    address internal burnAddress = 0x000000000000000000000000000000000000dEaD;\n\n    constructor(address _flowerContractAddress) {\n        flowerContract = IERC721(_flowerContractAddress);\n    }\n\n    function burn(\n        uint256 flower1,\n        uint256 flower2,\n        uint256 flower3\n    ) external {\n        // Validate sender ownership\n        require(\n            msg.sender == flowerContract.ownerOf(flower1),\n            \"FlowerSacrifice: You must own this FLOWER in order to sacrifice it.\"\n        );\n        require(\n            msg.sender == flowerContract.ownerOf(flower2),\n            \"FlowerSacrifice: You must own this FLOWER in order to sacrifice it.\"\n        );\n        require(\n            msg.sender == flowerContract.ownerOf(flower3),\n            \"FlowerSacrifice: You must own this FLOWER in order to sacrifice it.\"\n        );\n\n        // Make sure this contract has approval to transfer all the FLOWERs\n        require(\n            flowerContract.isApprovedForAll(msg.sender, address(this)),\n            \"FlowerSacrifice: You must approve FLOWERs before sacrificing them.\"\n        );\n\n        flowerContract.transferFrom(msg.sender, burnAddress, flower1);\n        flowerContract.transferFrom(msg.sender, burnAddress, flower2);\n        flowerContract.transferFrom(msg.sender, burnAddress, flower3);\n\n        uint256[3] memory flowers = [flower1, flower2, flower3];\n\n        emit Burnt(msg.sender, flowers);\n    }\n}\n",
  "sourcePath": "/Users/pash/Documents/Nugbase/flowerpatch-contracts/contracts/sacrifice/FlowerSacrifice.sol",
  "compiler": {
    "name": "solc",
    "version": "0.8.17+commit.8df45f5f.Emscripten.clang"
  },
  "schemaVersion": "3.4.11",
  "updatedAt": "2022-12-29T03:07:03.080Z",
  "networkType": "ethereum",
  "devdoc": {
    "kind": "dev",
    "methods": {},
    "version": 1
  },
  "userdoc": {
    "kind": "user",
    "methods": {},
    "version": 1
  }
}